:080000000C9449000C9400006F
:100008000C9400000C9400000C9400000C94000068
:100018000C9400000C9400000C9400000C94000058
:100028000C9400000C9400000C9400000C94000048
:100038000C9400000C9400000C9400000C94000038
:100048000C9400000C9400000C9400001027E803A6
:1000580064000A00010000100001100001000014F3
:10006800000000000000000052455A4120484F534C
:100078005345494E49002564000080C00A00040029
:1000880066000200960182000000F894EE27ECBB9F
:10009800F1E0FBBFEBBFE5BF8DE0A2E0BB27ED932E
:1000A8008A95E9F780E094E0A0E6ED930197E9F7F7
:1000B800E4E8F0E085919591009761F0A591B591FC
:1000C80005901590BF01F00105900D920197E1F799
:1000D800FB01F0CFEFE5EDBFE4E0EEBFC0E6D1E015
:1000E8000C94EA0097980E940704809905C0E5E1FE
:1000F8007E2EAFE20E940B04819905C0E6E17E2EB8
:10010800AAE20E940B04829905C0E7E17E2EADE2C7
:100118000E940B04839905C0E8E17E2EABE20E94A1
:100128000B04979AE72D0895E4E15E2E94980E94B7
:100138000704809902C0E7E05E2E819902C0E4E0DE
:100148005E2E829902C0E1E05E2E839911C00E9462
:100158007603E4E15E2E4424772488249924AA2493
:10016800BB24CC24DD24E0E0E0939001E0939101EE
:10017800949A95980E940704809902C0E8E05E2E40
:10018800819902C0E5E05E2E829902C0E2E05E2E0F
:10019800839B5524959A96980E940704809902C0DB
:1001A800E9E05E2E819902C0E6E05E2E829902C0E7
:1001B800E3E05E2E839907C00E941104ADE30E941C
:1001C8000B04E9E14E2E969AE52D0895E7EFE4BB7E
:1001D800E0E0E5BBE0EFE1BBEFEFE2BBE0E0E5BF6D
:1001E800E4BFEAB9E0E8E8B9E0E0E0BFE6B9EDB9B4
:1001F800E6BFA0E10E94BF030E947603E0E0EA9315
:10020800A1E00E946703A0E7B0E00E94AC03E0E031
:100218000E94180489DF5E2EE4E1E51561F0EAE04A
:100228005E1648F4E5E1E71530F0A0919201B0912F
:100238009301169709F410C0F4010E941C044F01A1
:10024800E0E6F1E00E942604E09190010E94180483
:10025800A0E6B1E00E943704E09190010E941804E2
:1002680041DF62DF5E2EE4E1E51531F0EAE05E167B
:1002780018F4E5E17E1608F414C0F5010E941C0488
:100288005F01E0E7F1E00E9426040E941104A0E764
:10029800B1E00E943704E6E0F0E0E0939201F093C9
:1002A8009301E9E1E41509F044C0E0919001EE5FA3
:1002B8000E941804E5E1E71531F4F501D4010E9424
:1002C8009E040E944504E6E1E71531F4F501D401E6
:1002D8000E9496040E944504E7E1E71529F4F40119
:1002E800EA19FB090E944504E8E1E71529F4F5013C
:1002F800E80DF91D0E944504E0E8F1E0FA93EA935D
:10030800EEE7F0E0FA93EA93E0919401F091950119
:10031800662777270E94B90484E00E941303289671
:10032800A0E8B1E00E949D03ACE2B1E00E94840421
:10033800442464CFFFCFBA93AA931A930A93AA814D
:10034800BB8112960E94B104309759F1AA81BB81F2
:1003580014960E94B1048F01309761F00230E0E0FA
:100368001E0798F0F80131978F01AA81BB81149676
:10037800ED93FC93AA81BB811296ED91FD91319684
:10038800FE93EE933197AC81A083AA81BB810E9432
:10039800B104FF232AF0ED91FD913196FE93EE937F
:1003A80006C0AA81BB81EFEFFFEFED93FC931981A3
:1003B800088125960895BA93AA9326970E94BE04A9
:1003C80010E0AC85BD85E0E0F0E0ED93FC93EA89B0
:1003D800FB893196EA8BFB8B3197E4912E2FE03025
:1003E80009F415C1E12FE03039F4253211F411E098
:1003F80002C00E944A040AC1E130A9F4253219F466
:100408000E944A0402C112E040E000E02D3211F4DB
:1004180001E0FCC02B3211F44BE2F8C0203211F499
:1004280040E2F4C002C0E23039F450E013E0203377
:1004380011F40068EBC003C0E33009F0E7C02033D3
:1004480010F02A3308F007C0AAE05A9F502DE22F77
:10045800E0535E0FDBC0E22FE33649F40E945104FB
:10046800E889F989A481AA930E945704CEC0E3378A
:1004780041F40E9451040E945D040E94EE031E2F65
:100488000AC0E03761F40E9451040E945D040E9492
:10049800FA031E2F086002600F7730E034C0E4369C
:1004A80011F0E93611F4046002C0E53731F4E4E5EF
:1004B800F0E0EE83FF8315E00CC0E83511F4086026
:1004C80003C0E83709F0A1C0EEE5F0E0EE83FF8352
:1004D80014E002FF14C00E9451040E946704AB8517
:1004E800AA233AF4EA85FB850E949204EA87FB87EF
:1004F8004DE2403011F01F5F01C00B7F04C00E9425
:1005080051040E94670400FD11C0151778F407FF15
:1005180008C002FF04C00B7F242F115001C020E344
:1005280001C020E20E944A045150EFCF312F01FF51
:1005380017C03030A1F003FF06C0EE81FF8125917E
:10054800EE83FF8305C0AE81BF812D91AE83BF834B
:100558000E944A04503009F051503150EACF4BC044
:1005680020E3EE81FF810E94B504E887F987EE81D8
:10057800FF813296EE83FF83E885F985AA85BB85DE
:10058800AE17BF0750F02F5FA885B985EA85FB85B0
:10059800EA1BFB0BEA87FB87EFCF2A3328F003FF20
:1005A80002C0295F01C0295D04FD1AC0213320F46F
:1005B800A885B985119709F409C0531710F000FFF1
:1005C80001C013C020E207FF0BC020E3006102FF57
:1005D80007C00B7F4A930E945704503009F05150CE
:1005E8000E944A04503009F051503150A885B9850D
:1005F800129708F0B5CF00FF08C0503031F05150C5
:10060800E0E2EA930E945704F8CF10E0E0CEAC8510
:10061800BD850E94B1040E94C50464960895FF92A6
:10062800F82E26970E94C0040E946F04309719F490
:10063800EFEFFFEF23C0DE0116960E948E048D01B6
:100648000E946F04EE83FF83E0E0E887E987DE011C
:100658001A960E948E040E94B104FA93EA931A93A0
:100668000A93EFE9F1E0FA93EA93DE011A96A3DE22
:100678009F01AE81BF81E0E0EC93F9010E94C704BD
:100688002A96FF900895AA93E5B3EF70AE2FE881FC
:10069800E07FEA2BE5BB8DE08A95F1F7AA9A8DE019
:1006A8008A95F1F7AA988DE08A95F1F791C0AA93F7
:1006B800A881E9DFE881E295E883A881E4DF85E89D
:1006C8008A95F1F785C0AA93E881F0E0EA56FE4FD3
:1006D800E081A981AE0FEBDF6980E881E0939A01A0
:1006E80022960895A2E00E947604ACE0E0DFA1E043
:1006F8000E947604E0E0E0939A016E2E0895AA9392
:10070800A881AA3021F0E0919B016E1660F0E0E02C
:10071800EA93A0919A01AF5FA0939A01D4DFA881D0
:10072800AA3009F455C06394A89AA881C0DFA89894
:100738004FC0BA93AA931A93A981BA81ED91A9835C
:10074800BA831E2FE03019F0A12FD9DFF5CF10C0E2
:10075800BA93AA931A93E981FA813196E983FA83C5
:100768003197E4911E2FE03019F0A12FC8DFF3CFA5
:10077800188123960895AA93E4B3E06FE4BBA29A84
:10078800A09AA19AAA98A898A998E881E0939B01B1
:10079800E058E0939801E881E054E0939901A4E1DE
:1007A800B0E00E9484040E947C040E947C040E94A1
:1007B8007C04A0E268DF88EC90E00197F1F7A8E2FA
:1007C80076DFA4E074DFA5E872DFA6E070DF8ADFD9
:1007D80021960895BA93AA93A991B991EE27FF2774
:1007E8006D91662311F03196FBCF0895BA93AA93C1
:1007F800AA27BB27E991F9910590002011F01196DD
:10080800FBCFFD010895A2E0B0E00C9484040E949F
:100818008303ACE2B1E00C948404E0919001EF5FB3
:10082800EA93A0E00C946703EA93A0E00C946703B2
:10083800AAE0B0E00E949604DF01E52DF0E0EA0F9F
:10084800FB1F0895FA93EA93EEE7F0E0FA93EA9330
:10085800E52DFF27662777270E94B90484E00E94C8
:100868001303289608950E949D03ACE2B1E00E940C
:100878008404A0E9B1E0ED91FD913196FE93EE93E9
:100888000895E0939401F093950108952A93AD8516
:10089800BE85EF85F88909950895E889F98934971F
:1008A800E88BF98B0895AD85BE85EF85F8890995A4
:1008B8000895A889B98914960E94B104EE83FF832C
:1008C800AE81BF810895A889B98914960E94B104A0
:1008D800EA87FB870895DE011C960E948E040E9419
:1008E800B10408950E945B03A3E0B0E00C94840473
:1008F800A0E30E94470388EC90E00197F1F7089580
:10090800109639F080ED97E00197F1F7A8951197C7
:10091800C9F708950024AF0DB01D0895F195E1952C
:10092800F0400895FA9FF02DEB9FF00DEA9FE02D1F
:10093800F10D08950024112490E1AA0FBB1F001C9B
:10094800111C0E1A1F0A18F40E0E1F1E01C0A160FA
:100958009A9599F7FD01D0010895ED91FC911197B1
:1009680008950590F491E02D08957A936A93FA9387
:10097800EA9308955A934A933A932A931A930A93B7
:1009880008955D814C813B812A81198108810895F0
:00000001FF
